:020000040800F2
:10000000E00F002005010008153300080929000849
:10001000193200086D170008DD6C000800000000B0
:10002000000000000000000000000000CD470008B4
:100030004B21000800000000AD420008F158000804
:100040001F0100081F0100081F0100081F01000810
:100050001F0100081F010008CD2300081F01000830
:100060001F0100081F0100081F010008A51F00084C
:100070001F0100081F0100081F0100081F010008E0
:100080001F0100081F0100081F0100081F010008D0
:100090001F0100081F0100081F010008F1230008CC
:1000A0001F010008755D00081F0100081F010008FE
:1000B0001F0100081F010008D55D00081F0100088E
:1000C0001F0100081F0100081F0100081F01000890
:1000D0001F010008C1690008896A0008356B000823
:1000E0001F0100081F0100081F010008DFF810D0E1
:1000F00000F00CFE0048004719880008AFF30080AC
:10010000E00F00200648804706480047FEE7FEE76C
:10011000FEE7FEE7FEE7FEE7FEE7FEE7FEE7FEE7B7
:10012000F5580008ED0000080649074A08685043E2
:1001300043F23902104408604008704701490860E2
:1001400070470000380100206D4EC64138B5D0E937
:100150000221491E01EB410102EBC1014268C1EBE2
:10016000011102EB81010268C1EB011102EB810276
:10017000D0E9043101EB410103EB81013023A1F50A
:10018000527191FBF3F4174D6C4302EBC41291FBD7
:10019000F3F403FB141100921A2902DB124B1A44E8
:1001A00000920C2291FBF2F3104C6343009C04EB91
:1001B000C313009391FBF2F302FB13110C4A08E006
:1001C000491E40F2A324535C6343009C04EBC31319
:1001D00000930029F4DC0146684600F0C3FB009858
:1001E00038BD00003F0C0F008051010067C20300C2
:1001F000D0D1000840EA01039B0703D009E008C9F9
:10020000121F08C0042AFAD203E011F8013B00F8DB
:10021000013B521EF9D2704710B5002200E0521C7B
:10022000835C8C5CA34201D1002BF8D1D8B2E1B23F
:10023000401A10BDF0B480EA0102D40F4200B2EBC4
:10024000410F02D20246084611464A0042D0C30D71
:10025000DDB2C1F3C752AD1A202D35DAC1F3160154
:1002600041F4000204B15242C5F1200602FA06F13F
:100270002A411044B3EBD05F23D0C4B1012DA0EBD1
:10028000C35009DCF0BC4FF0004202EAC352DBB2BB
:1002900000F5000000F003BC400000F1807000EBAE
:1002A000C350A0F1807040EAD170490009E04908CC
:1002B00041EAC071A0EBC35000F50000400800EB1C
:1002C000C350F0BC00F0E2BB6142012202EB4101ED
:1002D000001BF6E7F0BC704781F00041AAE780F010
:1002E0000040A7E780EA010210B502F00043400099
:1002F00022D04A001FD0010E01EB1261C0F356005C
:10030000C2F3560240F4000042F40002A0FB0220B7
:1003100000047F39140400D0401C50EA124001D47C
:100320004000491EC2B20C0604EBD010401C40082D
:10033000802A02D003E0002010BD20F00100002937
:1003400000DA0020184310BD30B480EA010202F048
:10035000004530F0004221F0004013D090B1C30DB1
:10036000D40DC2F31601C0F31600E41A41F40001E3
:1003700040F400027D34914201D3641C00E0490046
:10038000002C02DA30BC002070474FF4000000233C
:10039000914201D3891A034340084FEA4101F7D142
:1003A00051B1914202D14FF0004105E002D24FF02D
:1003B000010101E06FF0010103EBC450284430BC9F
:1003C00000F064BB420005D0C0F3C75252429142D4
:1003D00001DC0020704700EBC15070472DE9FE4F53
:1003E000804681EA0300C00F0C46009021F00041D6
:1003F00023F00045B8EB0200A94105D24046214652
:1004000090461C460B46024623F00040104347D05E
:10041000270DC7F30A00C3F30A510290401A019056
:1004200040286BDAC3F3130040F4801B0098924617
:1004300020B10023D2EB030A63EB0B0B0198594662
:10044000C0F14002504600F055FA06460D465046AF
:100450005946019A00F06DFA10EB08006141002442
:1004600087EA115284EAE7731A4340D0009A62B3D4
:10047000019A012A4FEA075215DC001B61EB0201C9
:100480004FF0004202EA0752CDE90042001C41F55C
:10049000801132462B4600F03FFB03B0BDE8F08FE1
:1004A00040462146F9E7001B61EB0201001C41F5C3
:1004B000801300185B412018A2F5001747EB0301D9
:1004C00040EAD570B6196D4111E06D084FEA360665
:1004D00045EAC0754FEA0752001B61EB0201001CA0
:1004E00041F5801149084FEA300000195141324668
:1004F0002B4603B0BDE8F04F00F0FFBA0098012290
:1005000040000023D0EB020263EBE0730098214629
:100510004FEAE074B8EB000061EB0401E9E783F017
:1005200000435BE781F0004158E72DE9FE4F81EA87
:10053000030404F0004421F0004100944FF0000B4C
:1005400023F0004350EA01045ED052EA03045BD07A
:10055000C3F30A54C1F30A552C44A4F2F3340194B2
:10056000A0FB0254C1F3130141F48011C3F3130340
:1005700043F4801301FB024400FB034E840A970AF4
:1005800044EA815447EA8357A4FB076802958D0A21
:1005900005FB07854FEA932C04FB0C542705029DAD
:1005A0004FEA065847EA1637B5EB08056EEB070C1D
:1005B000870E920E47EA811742EA8312A7FB0201D7
:1005C000B6EB0B0164EB00042B0D43EA0C335E1811
:1005D00044EB1C50DA465146E7FB0201C5F3130415
:1005E0004FEA0B3343EA14534FEA0432019C43EAC7
:1005F0000603A4F10C040294009CCDE900B400F0C1
:100600008BFA03B0BDE8F08F00200146F9E72DE931
:10061000F04D81EA030404F0004B21F0004514463C
:100620004FF0000A23F0004150EA050220D054EABE
:1006300001021DD0C5F30A570246C5F31303C1F3E7
:100640001300C1F30A5640F4801543F48013A7EB5E
:100650000608101BD64608F2FD3873EB050002D3DE
:1006600008F1010801E092185B41B8F1000F03DACC
:1006700000200146BDE8F08D00204FF480110646B1
:1006800084460EE0171B73EB050705D3121B63EBC3
:10069000050306434CEA010C49084FEA3000921862
:1006A0005B4150EA0107EDD152EA030012D082EA21
:1006B000040083EA0501084305D0101BAB4106D2B4
:1006C0000122002306E000224FF0004302E06FF019
:1006D000010253101AEB06004CEB085110EB0A0014
:1006E00041EB0B01BDE8F04D00F007BAC10F80EA05
:1006F000E0700844CA079623002100F0D0B9962381
:100700000022114600F0CBB90EB5C10F80EAE070AF
:100710000844CA07002140F233438DE80E000A4620
:100720000B4600F0F9F903B000BD0EB540F23341BD
:1007300002910021CDE900110A460B4600F0ECF9C8
:1007400003B000BD00F0004220F00040C10DC0F336
:10075000160040F400007F2901DA00207047962936
:1007600003DCC1F19601C84001E096398840002AB7
:10077000F4D04042704720F00040C10DC0F3160095
:1007800040F400007F2901DA00207047962903DC3D
:10079000C1F19601C840704796398840704770B5DE
:1007A000C1F30A5201F000450024C1F3130140F2E5
:1007B000FF3341F480119A4201DA002070BD40F20B
:1007C00033439A42A2F2334203DC524200F0A1F8D2
:1007D00000E090402C43F1D0404270BDC1F30A527A
:1007E00010B5C1F3130140F2FF3341F480119A4276
:1007F00001DA002010BD40F233439A42A2F23342A4
:1008000003DC524200F085F810BD904010BD00F0AE
:10081000004230F000400AD0C10D01F56071C0F314
:10082000160042EA0151C2084007114370470020F8
:100830000146704730B5041E71F1000404DB4FF02F
:100840000044404264EB0101141E73F1000405DB17
:100850001C464FF00043524263EB04038B4208BF37
:10086000824230BD30B5041E71F1000404DB4FF04C
:100870000044404264EB0101141E73F1000405DBE7
:100880001C464FF00043524263EB0403994208BFF9
:10089000904230BD01F0004330B421F0004150EAF5
:1008A000010206D00A0DA2F56072C1F31301002AFD
:1008B00002DC30BC00207047440F44EAC104C10090
:1008C000E01830BC00EBC25000F0E0B8002801DBBB
:1008D000C0F10040002901DBC1F1004181427047B5
:1008E000002801DBC0F10040002901DBC1F100411B
:1008F00088427047202A04DB203A00FA02F10020E7
:1009000070479140C2F1200320FA03F3194390404D
:100910007047202A04DB203A21FA02F000217047B8
:1009200021FA02F3D040C2F1200291400843194657
:100930007047202A06DBCB17203A41FA02F043EA3F
:10094000E07306E041FA02F3D040C2F12002914088
:100950000843194670470000014900F003B8000041
:10096000B00B002010B500683C22B0FBF2F302FB94
:100970001303B0FBF2F00B60B0FBF2F302FB1303C6
:10098000B0FBF2F018224B60B0FBF2F302FB130352
:10099000B0FBF2F0021D8B600723B2FBF3F403FB04
:1009A0001422800040F2B55300F66C308A61B0FB2F
:1009B000F3F2B0FBF3F403FB1400443280084A6105
:1009C000C8613B2802D3920700D0401C0022074C8C
:1009D00013460A61E25C824203D8801A5B1C0B61F9
:1009E000F8E7401CC860084610BD000068D3000846
:1009F0000FB4002300B589B00CA900910B996FF0DA
:100A00000042CB601E4B06931E4B07930423CDE997
:100A100001321D4A089202466B46002000F022FA7D
:100A200009B05DF814FB70B586B006464FF0FF3094
:100A30000091CDE90101002015460C460490324694
:100A4000694604A8FFF7D4FF02460498211825B18F
:100A500008B1084600E020462860049800280DD020
:100A6000002A02DD0098884208D0081B0094CDE9D6
:100A700001043246694604A8FFF7BAFF06B070BD0C
:100A80009D100008BB100008310D00080029A8BF08
:100A90007047401C490008BF20F00100704710B4A7
:100AA000B0FA80FC00FA0CF050EA010404BF10BC5C
:100AB000704749B1CCF1200421FA04F411FA0CF189
:100AC00018BF012121430843A3EB0C01CB1D4FEAC2
:100AD00000614FEA102042BF002010BC704700EBBD
:100AE000C35010440029A4BF10BC7047401C4900EB
:100AF00008BF20F0010010BC704710B5141E73F140
:100B0000000408DA401C41F1000192185B411A43CD
:100B100001D120F0010010BD2DE9F04D92469B4619
:100B200011B1B1FA81F202E0B0FA80F220329046BF
:100B3000FFF7E0FE04460F4640EA0A0041EA0B01D7
:100B400053465A46084313D0114653EA010019D0C0
:100B5000C8F140025046FFF7DCFE05460E465046FF
:100B600059464246FFF7C6FE084305D0012004E07F
:100B700020463946BDE8F08D0020054346EAE07680
:100B80002C4337430A986305E40AA0EB08000022CF
:100B9000FD0A44EA47540A3002D500200146E9E73D
:100BA000010510196941DDE9084500196941BDE8F1
:100BB000F04DA2E770B521F0004303430CD0C1F320
:100BC0000A550024D5EB040564EB0403D617AD1ACF
:100BD000B34102DB0020014670BD201841EB0251F9
:100BE00070BD2DE9F04D00231A461B1A8A4103DB24
:100BF00000200146BDE8F08DC1F30A52C1F3130194
:100C000041F480154FF0000BD10702D100186D415F
:100C1000521E0027044640F2FF11384601EB620ADB
:100C20003E468046024600204FF48011FFF771FED9
:100C3000C2197141BB1846EB0100B4EB030C75EB14
:100C4000000C04D3E41A65EB000517460E46241980
:100C500008F101006D4180463428E3DDF91946EBC7
:100C60000600091BA84103D24FF0FF32134601E0F2
:100C7000002213461BEB070046EB0A51BDE8F04D7E
:100C8000FFF73BBF2DE9F041054621F000400C463F
:100C9000284309D0C4F30A5040F23341884205DDAD
:100CA00028462146BDE8F0812846FBE740F2FE31A8
:100CB000884210DC0CDB4FEA043040EA155050EA61
:100CC000053105D0104804F0004101430020E9E758
:100CD00000200146E6E7A0F233404642C6F140025A
:100CE00028462146FFF706FE074688462846214645
:100CF0003246FFF70EFE43463A46FFF7FEFE324607
:100D0000BDE8F041FFF7F6BD0000F03F064C074D8F
:100D100006E0E06840F0010394E8070098471034CB
:100D2000AC42F6D3FFF7E6F9A0D50008C0D500081D
:100D3000C0B24FF4F05100F0D1B900002DE9FF4FDF
:100D4000087883B09946FF2805D0491C2D2804D087
:100D50000024002008E000200BE00124F9E700EB6C
:100D6000800003EB4000491C0B78FF2BF7D104B146
:100D7000404200230293147819461D462D2C01D0C1
:100D80002B2C04D1521C2D2C13D000240294AA46E3
:100D90001478FF2C0FD00A25A3FB057801FB0581F1
:100DA0004FF0000C03FB0C11521CE3194AEB01013C
:100DB000EEE70124EAE7814453EA010002D019F585
:100DC000C87F06DA03980021C0E9001107B0BDE82A
:100DD000F08F0025AE4E2F46DFF8B882184600F09F
:100DE00091F9CDE90001B9F1000002DAC9F100047E
:100DF00000E004460023A74A1AEB030B42EB045A17
:100E000012E0E00707D02A46334638464146FFF74E
:100E10008CFB074688462A46334610461946FFF79C
:100E200084FB05460E466410002CEAD1DDE9000182
:100E3000B9F1000F5A46534606DAFFF7E8FB3A4687
:100E40004346FFF7E4FB05E0FFF76FFB3A464346F6
:100E5000FFF76BFB029A0AB181F00041039AC2E9E5
:100E60000001B3E72DE9FF4F1F468DB0D7E90146DA
:100E70004FF0FF382E2045464FF000090B90B9691E
:100E80006D1C0E988847396A824688470028F6D13B
:100E9000BAF1FF3F0AD024F4D064002E11DDBAF17C
:100EA0002B0F08D0BAF12D0F0BD102E0404611B044
:100EB0008DE744F48064B9696D1C0E9888478246BA
:100EC000761E6946600501D52D2000E02B208DF8A7
:100ED000000001F1010B0DF1200809E0B9696D1C5A
:100EE0000E98884782460F9844F40074761E056079
:100EF000002E02DDBAF1300FF0D00B998A453ED1B9
:100F000044F0800406E00F99681CA9F1010944F43B
:100F100000740860B9696D1C761E0E988847824679
:100F20003028F0D02BE00B998A4505D1200603D458
:100F300044F08004761E18E0504606F037FC08B3F3
:100F40000DF11301761E44F400748B4508D2AAF10A
:100F500030000BF8010B200607D5A9F1010003E0D2
:100F6000200602D409F101008146A00502D50F999F
:100F7000681C0860B9696D1C0E9888478246002E6F
:100F8000D1DC53E0002E51DDBAF1650F02D0BAF189
:100F9000450F4BD1A00549D5B9696D1C24F44074A7
:100FA000761E0E9888478246002E0CDD2B2804D032
:100FB000BAF12D0F07D144F48074B9696D1C0E98F5
:100FC00088478246761EE00501D52D2100E02B21C1
:100FD00008F8011BCDF82C8021E00DF12901761EC7
:100FE00044F4007488450CD2AAF1300010F0FF00E0
:100FF00088F8000002D10B99884509D908F1010849
:1010000006E0E00501D5244801E042F20F70814678
:10101000B9696D1C0E98884782460F980560002EAE
:1010200004DD504606F0C2FB0028D6D1F9690E98BF
:101030008847FF208BF8000088F800000020069009
:1010400007904B466A4608A906A8FFF777FEA00559
:1010500002D46FF001002AE714F0240F0AD0E00751
:1010600014D1DDE906123868031D3B600068C0E951
:1010700000120BE0DDE90601FFF70CFC0146E0077A
:1010800004D13868021D3A600068016028460EE706
:10109000000014400000F03FF1D8FFFF426842B169
:1010A000016811F8013B23B1521EC0E90012184635
:1010B00070470121C160881E704742685AB1C368F9
:1010C000016843B983688B4205D0491E521CC0E9B0
:1010D0000012002070474FF0FF3070477F2801D981
:1010E000002208E0064A02EB5002C007127800D145
:1010F000120902F00F0201209040084070470000E2
:1011000074D300080EB540F2334202920022CDE9BA
:1011100000221346FFF700FD03B000BD70B58C1828
:1011200010F8015B15F0070301D110F8013B2A11FB
:1011300006D110F8012B03E010F8016B01F8016BE8
:101140005B1EF9D12B0705D40023521E0DD401F8E4
:10115000013BFAE710F8013BCB1A921C03E013F8AD
:10116000015B01F8015B521EF9D5A142D8D30020E2
:1011700070BD0029816802D041F0010101E021F039
:101180000101816070470029816802D041F48071BB
:1011900001E021F48071816070470029816802D0EC
:1011A00041F4801101E021F4801181607047014613
:1011B00000208968490700D501207047C06C80B2C3
:1011C00070470246002012680A4200D00120704792
:1011D000014600208968090700D5012070470000FA
:1011E00010B542680E4B0C791A400B6842EA042293
:1011F0001343436082680B4B1A40D1E902432343F7
:101200004C7942EA440213438360C26A097C22F4A7
:101210007002491EC9B242EA0151C16210BD00000C
:10122000FFFEF0FFFDF7F1FF70B5072609290AD987
:10123000C568A1F10A0404EB4404A640B543A340E9
:101240001D43C56007E0056901EB4104A640B543B5
:10125000A3401D4305611F23072A09D2446B521E78
:1012600002EB820293409C4391400C43446370BD67
:101270000D2A09D2046BD21F02EB820293409C43D9
:1012800091400C43046370BDC46A0D3A02EB8202C4
:1012900093409C4391400C43C46270BD816841F00F
:1012A0000801816070470029816802D041F4A001E3
:1012B00001E021F4A00181607047816841F00401E0
:1012C0008160704710B50B4C014607230122204670
:1012D000FFF7AAFF01212046FFF7E5FF0221204684
:1012E000FFF76FFF0028F9D02046BDE81040FFF758
:1012F00065BF00000024014010B5012186B04802FE
:1013000003F064F80121082003F060F84FF4004076
:1013100003F03AF800248DF817400320ADF81400CC
:101320008DF8160005A9154801F01EF94FF460204C
:10133000CDE902048DF8054000948DF804400120A9
:101340000F4C8DF8100069462046FFF749FF012138
:101350002046FFF70EFF2046FFF7A0FF2046FFF7CD
:1013600037FF0128FAD02046FFF7A7FF2046FFF7F6
:101370001EFF0128FAD006B010BD0000000C01408D
:10138000002401400121042003F020B82DE9FC4194
:10139000164C0D4606466288B2F5967F22D9002784
:1013A0006780684600F054F800984FF47A7148431B
:1013B000000D30600198490048430D4901EB105081
:1013C0002860207805280AD9277000F0B0F8C0F30B
:1013D000C100032801D000F0D6F8BDE8FC81401C14
:1013E0002070FAE7521C6280F7E7000044000020FA
:1013F0000CFEFFFF01F00CBB2DE9F041002603F0CD
:1014000041F903F045F9082003F019FA00240F4FC1
:1014100003F032F900F0B4FE00252021384601F037
:101420001DF900B1012545EA4600C6B203F02AF9CC
:1014300000F0A6FE641CE4B2082CE9D303F028F9FE
:10144000082003F0FCF93046BDE8F08100080140B7
:10145000F0B587B0054600208DF800008DF8040037
:101460008DF808008DF80C008DF810008DF8140030
:101470000646044600F06CF8502000F067FE40F28B
:10148000E45707E0384603F0DAF92046641CA4B2BA
:10149000642803D200F04BF80006F3D401F0A0FA60
:1014A000712000F07CF803F0C1F8FFF7A5FF8DF87C
:1014B000000003F08CF9FFF79FFF8DF8040003F0A4
:1014C00086F9FFF799FF8DF8080003F080F9FFF720
:1014D00093FF8DF80C0003F07AF9FFF78DFF8DF87C
:1014E000100003F074F9FFF787FF8DF8140003F084
:1014F0008AF904F01DF99DF804009DF808100643D0
:1015000041EA06209DF80C1041EA002000092860FD
:101510009DF80C009DF8101041EA00209DF8141071
:1015200041EA0020C0F31300686007B0F0BD10B5B9
:1015300001F056FA712000F032F803F077F8FFF767
:101540005BFF044603F05FF904F0F2F8204610BD9B
:1015500010B501F045FA702000F021F803F066F8AC
:10156000AC2000F01CF803F061F8332000F017F80D
:1015700003F05CF8002000F012F803F057F8BDE823
:10158000104004F0D5B810B51B2001F069FA1C20FA
:1015900001F066FABDE810401E2001F061BA70B596
:1015A00004468026002503F06DF800F0DAFD26429F
:1015B00002D003F07FF801E003F092F803F05CF84A
:1015C00000F0CFFD60066D1C040EEDB2082DEAD3CD
:1015D00003F058F8082003F032F903F059F8BDE899
:1015E0007040082003F02BB92DE9F0412B4C01206D
:1015F000607000F05DF901F0CBFE00254FF4FA7742
:10160000274E11E0062327A23821002002F06AF9B4
:1016100002F048FDA088B84225D8317819B3401CA3
:10162000A080012006F0D4FC60780028EAD100F008
:1016300057F9A07878B3082318223821002002F047
:1016400045FD062319A23821002002F04BF94FF482
:10165000967006F0BDFCA078062817D2DFE800F0EF
:1016600016080B0E1114A58025706570BDE8F08179
:1016700006F088FD0AE005F0D5FB07E000F048F928
:1016800004E008F061F801E000F080F8A57001F0D6
:101690007FFE02F007FD2570A580E7E7A800002087
:1016A000420000202E2E2E3F000000002E4F4B2126
:1016B0000000000010B50324052006F089FC204638
:1016C00003F000FF012002F083FD02F0EBFC07F0C5
:1016D000A5F9012816D0401C14D008E0012400E030
:1016E0000024002002F074FDA01C03F0EBFE07F0C4
:1016F00069F9012801D00228E4D1BDE8104000209A
:1017000002F066BD002CEBD1E8E7000008B5024905
:1017100008440090008808BD006C004008B5024AEB
:1017200010440090016008BD006C00400D4810B5E9
:101730000078002814D0012002F02FF8812002F058
:101740001FFD0948007802F01BFDFFF74DFF01F077
:101750001FFE02F0A7FCBDE81040002002F01DB8FB
:1017600010BD0000A8000020AE000020FEE703F03E
:10177000C3B870B50D460646002404E0305D03F0A2
:1017800013F9641CE4B2AC42F8D970BDFEB501F0A7
:101790007BFD364800240178162000F06BF86420A9
:1017A00006F016FC7E208DF8000031208DF8010037
:1017B00000208DF802002E4A07208DF80400D08802
:1017C0000C2801D8082100E009218DF805100C2112
:1017D000B0FBF1F301FB13038BB1B0FBF1F301FBA1
:1017E00013000B308DF806000A218DF80710107ACF
:1017F0000B23EF250A2805D200F10B0005E04FF07E
:101800000C00EEE704D14FF015008DF808001DE044
:10181000B0FBF1F2B0FBF1F601FB1601022A11D088
:10182000032A11D01A208DF8080079B10B318DF8F8
:101830000910012406208DF80A308DF803008DF878
:101840000B500AE01820EEE71920ECE705208DF890
:1018500009308DF803008DF80A500CB10B2100E01F
:101860000A216846FFF785FFFEBD00004800002002
:101870002C0000207CB57E228DF800208DF8010020
:1018800000208DF802008DF804000222EF208DF870
:1018900005108DF803208DF8060000246D46285DA4
:1018A00003F082F8641CE4B2072CF8D37CBD00007E
:1018B00010B50A4C6078401C607021781620FFF744
:1018C000D9FF642006F084FB61781320FFF7D2FF74
:1018D0006078032801D30020607010BD480000200C
:1018E00010B50A4CA078401CA07021781620FFF794
:1018F000C1FF642006F06CFBA1781320FFF7BAFF4C
:10190000A078062801D30320A07010BD4800002055
:101910002DE9F04F95B001F03BFD02F0C3FB002430
:10192000F549F648CDE90F01F649F548CDE9120130
:101930002546A046A146A346A2460D9426461194EC
:10194000A5E201F025FD062209210A208DE8070005
:1019500022462B460321002002F072F906220921BB
:101960000A208DE8070042464B460E21002002F077
:1019700067F90E98012812D016237F2219460020FD
:1019800001F04AFDBAF10A0F0DD208200223524697
:101990003021009002F010FB0823DBA217E00C239B
:1019A0007F221946EBE7AAF10A00172861D2DFE887
:1019B00000F00C1114171A1D24272A2D303B4E510C
:1019C0005485888B8E9194979A000823CFA230215A
:1019D00000204CE00823CEA2F9E70823CDA2F6E7C9
:1019E0000823CDA204E00823CDA201E00823CEA263
:1019F0003421002002F009FB3BE00823CCA2E6E7FB
:101A00000823CEA2E3E70823CFA2E0E70823D1A270
:101A1000DDE70823D2A23021002001F063FF062376
:101A20003021D1A2112022E00823D0A230210320AE
:101A300001F058FF3C2301223F21032001F0ECFC80
:101A400031231A2219460A2001F0E6FC11E008238E
:101A5000C8A2BCE70823CAA2B9E70823CCA2302158
:101A6000002001F03FFF0623C4A238211A2001F014
:101A700039FF002E6FD0012E38D0022E3DD0032E1C
:101A800042D0042E47D0052E4CD0062E4FD0072E24
:101A900052D0082E55D0092E58D00A2E5CD00B2ECD
:101AA0005FD00C2E62D00D2E65D00E2E68D00F2E7A
:101AB00076D0102E7DD0112E71D08DE00823B8A2E3
:101AC00085E70823BAA282E70823BDA27FE708239F
:101AD000BFA27CE70823C3A279E70823C6A276E762
:101AE0000823CAA273E70823CDA270E742464B46FB
:101AF0002046294605F0A0FF6CE042464B462046B2
:101B0000294607F087FD65E042464B4620462946B8
:101B100006F0C6FF5EE042464B462046294606F0E8
:101B2000EDFA57E02046294607F04EFD52E02046E8
:101B3000294607F0F9FC4DE02046294606F0DCF97D
:101B400048E02046294607F067FD43E02046294645
:101B500005F074FF3EE04EE02046294605F02EFEDB
:101B600038E02046294606F0A1F833E02046294611
:101B700006F032FC2EE02046294606F0DBFD29E087
:101B80002046294606F028FC04460D4640464946B4
:101B900006F022FC22462B4613E001E009E013E0A8
:101BA000DDE90F3220462946FEF731FD0022A14B28
:101BB0000EE0DDE90F3220462946FEF7B6FC002292
:101BC0009C4BFEF724FD05E022462B4610461946A5
:101BD000FEF7ABFC04460D460026304603AA08ABD0
:101BE000302111541954401CC0B21428F9D34FF0BD
:101BF000000BCDF834B0119888B3502F07D00E9851
:101C0000452F11D001281AD0022839D128E00E988A
:101C1000012802D0022833D102E0DDE90F542FE081
:101C2000DDE90F9188462BE0012802D0022827D158
:101C300002E0DDE9124523E0DDE912011EE0BBF11F
:101C4000130F1DDA03A8002100F80B700BF1010B34
:101C500000F80B1006F03AF904460D4610E011E0CA
:101C60000D9813280CDA0D9908A847540D99491CB2
:101C70000D910D9A0021815406F028F9804689467D
:101C80000020119002F00EFA012002F0A1FA06F0F5
:101C9000C5FE012802D0401C06D00CE0BAF1200F8E
:101CA00009D20AF1010004E0BAF1000F03D0AAF151
:101CB000010000F0FF0A06F085FE012808D0022886
:101CC0007FF43FAE002002F083FA15B0BDE8F08F3C
:101CD000BAF10D0F0FD2BAF10D0F09D2DFE80AF0F9
:101CE0000709ACAEB0B2B4B6B8BABCBEC0003027BB
:101CF000B7E03127B5E0B7E0182D4454FB21094087
:101D00000357148B0ABF05402B0000002E00000073
:101D10002B5049002B450000C7D0BBBB0000000082
:101D2000C7E5B3FD00000000BDBBBBBB0000000069
:101D30006E312B6E323D3E6E310000006E312D6EE5
:101D4000323D3E6E310000006E312A6E323D3E6EF5
:101D5000310000006E312F6E323D3E6E31000000CA
:101D60006E31203D3E6E3100320000002F6E313D5D
:101D70003E6E31006C6E286E31293D3E6E310000A2
:101D80006C6F673130286E31293D3E6E31000000A6
:101D90006C6F672020286E32293D3E6E31000000B6
:101DA00073696E286E3128524144293D3E6E3100E0
:101DB000636F73286E3128524144293D3E6E3100D5
:101DC00074616E286E3128524144293D3E6E3100C7
:101DD0006173696E286E31293D3E6E31285241444F
:101DE0002900000061636F73286E31293D3E6E311A
:101DF00028524144290000006174616E286E312927
:101E00003D3E6E3128524144290000006E31285277
:101E10004144293D3E6E31284445472900000000D9
:101E20006E3128444547293D3E6E312852414429B0
:101E30000000000000806640322712E0332710E0E7
:101E400034270EE035270CE036270AE0372708E074
:101E5000382706E0392704E02E2702E0502700E06B
:101E60004527012011906CE5AAF10D001428FAD243
:101E7000DFE800F00A1222323436383A3C3E404263
:101E80004446484A4C4E50520E98012802D0012038
:101E90000E9056E50220FBE700242546A046A14609
:101EA000A346204603AA08AB302111541954401C04
:101EB000C0B21428F9D344E520464446804629465A
:101EC00058464D46DDF834B089460D90142208A9D5
:101ED00003A800F023F834E5012632E5022630E5B8
:101EE00003262EE504262CE511262AE5052628E5FD
:101EF0000C2626E50D2624E50E2622E5062620E5FD
:101F000007261EE508261CE509261AE50A2618E517
:101F10000B2616E50F2614E5102612E530B5002332
:101F200005E0C45CCD5CC554CC545B1CDBB2934271
:101F3000F7D330BD2DE9F047894604464D1EA0F188
:101F40000108E9B208F0FF0001F08EFB0646E9B295
:101F5000204601F089FB3718661CE9B2F0B201F0A7
:101F600083FB3D1808F0FF00494601F07DFB054466
:101F7000F0B2494601F078FB2F1809F10105E9B2EA
:101F800008F0FF0001F070FB0744E9B2204601F0C1
:101F90006BFB0744E9B2F0B201F066FB3844C0B213
:101FA000BDE8F08710B5022000F098F8002807D0AF
:101FB000044901200872BDE81040022000F004B876
:101FC00010BD000080000020C10002D50249086059
:101FD0007047024948607047040402400000024014
:101FE0000029016802D041F0010102E04FF6FE72C3
:101FF000114001607047000001684FF6FE72114009
:1020000001600021016041608160C1603149314A55
:102010000839904203D1486840F00F0006E02D4A8D
:102020001432904204D1486840F0F0004860704794
:10203000284A2832904203D1486840F47060F5E79E
:10204000244A3C32904203D1486840F47040EDE7A6
:10205000204A5032904203D1486840F47020E5E7AE
:102060001C4A6432904203D1486840F47000DDE7B6
:10207000184A7832904203D1486840F07060D5E742
:10208000154A111F904203D1086840F00F0006E086
:10209000114A1432904204D1086840F0F000086000
:1020A00070470D4A2832904203D1086840F47060AE
:1020B000F5E7094A3C32904203D1086840F4704089
:1020C000EDE7054A50329042EAD1086840F47020AA
:1020D000E5E7000008000240080402400246002034
:1020E000D10001D5034900E003490968114200D03D
:1020F000012070470004024000000240002A0268EC
:1021000001D00A4300E08A430260704730B502689C
:1021100047F6F0739A430C6A8B682343D1E9044570
:102120002C4323438C692343CC6923434C6A2343C8
:102130008C6A234313430360CA6842600A68826062
:102140004968C16030BD41607047704710B50346B3
:102150004FF47A7402E0204602F071FB5B1EFAD263
:1021600010BD00B5012000F01DF8012000F01AF8A4
:10217000012000F017F801205DF804EB00F012B820
:1021800000B5012000F00EF8012000F00BF801204E
:1021900000F008F8012000F005F801205DF804EBDC
:1021A000AFF3008003E00021491C0229FCD3401E4C
:1021B000F9D270472DE9F84F754ED6E90501FEF7C3
:1021C0008BF8009073480027C6E90870F079DFF8B3
:1021D000C8A1DFF8C891DFF8C8B100284FD0554634
:1021E000BAF83200FEF78BFAD9F80010FEF77AF849
:1021F0005946FEF7A9F83169FEF774F880461A24AB
:10220000AA46B07921183AF81100FEF778FAD9F801
:102210000010FEF767F85946FEF796F83169FEF7A9
:1022200061F805463079F169002840460AD0FEF78A
:102230004DFB0FD82846F169FEF752FB0AD2B47164
:10224000F7710EE0FEF74CFB04D22846F169FEF769
:102250003DFBF4D9641CE4B2A846642CD1D3F079D8
:1022600058B9B0793146192802D91938887100E077
:102270008F71C87810B10120B07000E0B770D046FF
:10228000BAF80000FEF73BFA4D46D9F80010FEF709
:1022900029F85946FEF758F83169FEF723F8044645
:1022A000716AFEF713FB00D2746220467169FEF773
:1022B00017FB01D8746905E02046B169FEF706FBFB
:1022C00000D8B469B1692046FEF706F80099FEF718
:1022D0003BF83449FEF706F801463348FDF7FCFFAA
:1022E000C246DFF8C4B007460124A946B0464646B8
:1022F00098F8060021183AF81100FEF700FAD9F80C
:102300000010FDF7EFFF2649FEF71EF83169FDF7D3
:10231000E9FF0546716AFEF7D9FA00D275622846D0
:10232000316AFEF7DDFA00D2356228467169FEF7A0
:10233000D7FA01D8756905E02846B169FEF7C6FAF3
:1023400000D8B569B1692846FDF7C6FF0099FDF7C9
:10235000FBFF1449FDF7C6FF01465846FDF7BCFFD9
:102360000646FEF708FAC5B23846FEF704FAC1B2CF
:1023700004F11A00C2B2401EC0B22B4601F04CF864
:10238000641CE4B23746642CB1D3BDE8F88F00007A
:10239000800000200000C841AE050020B8000020E9
:1023A00000F07F4500007442000078420248016856
:1023B00021F00101016070470004014002480168FA
:1023C00041F00101016070470004014010B5012097
:1023D00000F050F8012807D1044900200870BDE83A
:1023E0001040012000F040B810BD00004200002065
:1023F00070B5402000F03EF8164C012809D1207835
:1024000008B103F077FA144901200870402000F069
:102410002BF8802000F02EF801281AD10F4800F088
:102420008BFC0E4D0E4EAD1EB5F902003188884270
:102430000ADD012001F0B1F9002020702870094860
:102440004621007848433080BDE87040802000F08D
:102450000BB870BD42000020A8000020360100200B
:102460007C000020790000200149086070470000CE
:1024700014040140064A014600201268044B0A4039
:1024800014331B680B4202D0002A00D00120704791
:102490000004014030B51A4A8379016853B31368C8
:1024A0008B431360111D0B680468A3430B60017913
:1024B00011440B68046823430B60114B08331968FF
:1024C0000468A14319601C1D21680568A9432160A7
:1024D0004179102905D011440A68006802430A6056
:1024E00030BD196802681143196021680068014312
:1024F000216030BD0079104402688A43026030BD1B
:10250000000401400B4810B5D0F8340101280AD06E
:102510000948D0F80001012804D006F053FA022837
:1025200002D004E0022010BD04490120C87200203E
:1025300010BD00000000224200002142E8000020FF
:1025400010B58A0721F003040649120F21440F2316
:102550008C6893409C438C608B68904003438B60F5
:1025600010BD000000000140F0B5CC78002204F05E
:102570000F03E40601D58C7823430C784FF00F0C41
:1025800014F0FF0F4FF0010E1BD005680E880EFAF5
:1025900002F42640A64210D196000CFA06F725EA6E
:1025A000070703FA06F5CE783D43282E02D0482EC1
:1025B00002D002E0446100E00461521C082AE5D325
:1025C00005600A88FF2A1CD94468002202F1080627
:1025D0000EFA06F50E882E40AE420ED196000CFA89
:1025E00006F7BC4303FA06F7CE783C43282E00D109
:1025F0004561CE78482E00D10561521C082AE5D3EA
:102600004460F0BDF0B5144C002801DAE36900E045
:102610006368450D2E0185B2C0F30157B540C0F384
:102620000342032F05D0C6020AD503269640B343C2
:1026300007E023F07062636823F07063636002E078
:10264000AB4343F0706201B12A43002801DAE26132
:10265000F0BD6260F0BD00000000014002460020B5
:1026600092680A4200D001207047416170470161C1
:1026700070470AB101617047416170472DE9F04729
:1026800020254FF0FF39082710262C46C84600F0B9
:102690007FFE0021DFF8C8C00A4600200CEBC11302
:1026A0001A54401CC0B28028FAD3491CC9B2082968
:1026B000F3D300F057F8B8F1000F05DD06F0AEF9DE
:1026C00004EBC000C4B204E006F0A8F906EBC000B9
:1026D000C6B206F07F0604F03F0423463246294680
:1026E000384600F099FEF01B012806DDC11700EB0B
:1026F000517007EBE000401C07E0484507DAC117BE
:1027000000EB517007EBE000401EC7B200E0374617
:10271000601B012805DD00EBD07005EB6000401C5C
:1027200006E0484506DA00EBD07005EB6000401E7D
:10273000C5B200E0254601F0B5FC012001F048FDDE
:1027400006F040F9012806D00228B2D1BDE8F047D2
:10275000002001F03DBDC8F100004FFA80F8A8E765
:10276000AE01002070B50025002429462046FFF761
:10277000E1FB06462946204600F076FF38B1B61E3A
:10278000022E0AD32946204601F092FD05E0032ED1
:1027900003D12946204601F09BFD641CE4B2802C45
:1027A000E3D36D1CEDB2402DDED3BDE8704004F0E4
:1027B0008BBA03460021084609E07E2A03D9801C13
:1027C000C0B2891C02E0401CC0B2491CC9B25A5CAC
:1027D000002AF2D1704700002DE9FC5FDFF820915C
:1027E0000026A9F1060AB9F80020AAF80020B9F8D5
:1027F0000220AAF802203746B9F80400B846344649
:10280000AAF804003546EB460BF104026846911E17
:1028100000F09FFA50B9BDF90000BDF9041006445C
:10282000BDF90200641C07448844E4B26D1CEDB29B
:102830000A2DE9D397FBF4F196FBF4F00BB298FB69
:10284000F4F100B2A9F80000A9F802300AB2A9F820
:102850000420BAF900104D460C1A5746002C00DC33
:10286000441AB7F9020026B2C41A002C00DC1C1A64
:10287000BAF904300FFA84FC9C1A002C00DCD41A3C
:1028800022B241F29514A6F5FA76A64200D3298029
:10289000ACF5FA7CA44500D36880A2F5FA72A24296
:1028A00000D3AB80174AB5F90000B2F9001081429D
:1028B00000DC01461180B2F90610814200DA0846B8
:1028C000D080B2F90210B5F90200814200DC014665
:1028D0005180B2F90810814200DA08461081B2F93D
:1028E0000410B9F90400814200DC01469180B2F97C
:1028F0000A10814200DA08465081BDE8FC9F0000C2
:10290000E0000020A20B0020FEE7000070B50120CF
:1029100001F092FC0820FEF7F9FE264908702649CE
:1029200000120870012001F087FC0C20FEF7EEFE7B
:10293000224AC0F30311224B1170C0F3002102257B
:10294000197005EA10210426597016EA10229A70AF
:102950004FF0010401D01E7103E009B11D7100E0C8
:102960001C711849000B08701020FEF7CFFE164AA4
:1029700000F00101C0F3031511700021134B144A3C
:10298000012D14D01C7011701249000A08704621E4
:102990004843114908801C20FEF7B8FE0446182061
:1029A000FEF7B4FE0D4944EA0040086070BD19709E
:1029B0001470E9E7AE0000207A000020C800002073
:1029C0003F0000205300002078000020B4000020C9
:1029D000C4000020790000207C000020900000202E
:1029E00010B501F067FE082001F029FF01F044FE58
:1029F000082001F024FF01F073FE082001F01FFF02
:102A000001F040FEBDE81040082001F018BF0000B2
:102A1000F8B5FEF7B7FC14258DF803502020ADF86B
:102A200000000E4E03248DF8024069463046FFF741
:102A30009BFD20213046FFF71AFE8DF80350102031
:102A4000ADF800008DF8024069463046FFF78CFD76
:102A500010213046FFF70BFEF8BD000000080140D2
:102A600070B50546FFF7BCFF7020FEF798FD01F03A
:102A7000DDFD2846FEF793FD01F0D8FD0020FEF7AE
:102A80008EFD01F0D3FD0020FEF789FD01F0CEFDA3
:102A900002F04EFE0520FFF759FBFFF7A1FF712062
:102AA000FEF77DFD01F0C2FDFEF7A6FC01F08FFEF2
:102AB000FEF7A2FC044601F08AFEFEF79DFC0646E6
:102AC00001F0A1FE02F034FE0A20FFF73FFBFFF702
:102AD00087FF7020FEF763FD01F0A8FD45F0B00010
:102AE000FEF75DFD01F0A2FD2046FEF758FD01F066
:102AF0009DFD3046FEF753FD01F098FDBDE87040A6
:102B000002F016BE2DE9F84F00F042FC01F0CAFABF
:102B100043480090404F414D4FF4FA7005F058FA89
:102B20000024DFF800A1DFF800914FF07E5B00F099
:102B30002FFC2846FDF76BFEDFF8F0805646524624
:102B40004346FDF764FDFDF7A5FE0546B0F17C5F49
:102B500030DA3846FDF75BFE32464346FDF757FD57
:102B6000FDF798FE07463249FDF764FB012100900E
:102B7000FDF728FC2F49FDF7B2FBFDF7E3FD40B25E
:102B800008232DA2132100F0ADFE2E480099FDF779
:102B9000A3FBFDF7D7FD40B206232BA2242100F0B2
:102BA000A1FE0098FDF7E7FDC2B218231421002012
:102BB00000F002FC29464846FDF78EFBFDF7DBFDE1
:102BC0008046C6B20098FDF7D6FDC2B2C0B2334609
:102BD000142100F021FC08F0FF0659460098FDF78B
:102BE0007BFBFDF7C8FDC2B2C0B23346142100F032
:102BF00013FC01F057FA012001F0EAFA641CA4B2B8
:102C0000DC2C94D3002001F0E3FA00F0C1FBBDE816
:102C1000F84F01F047BA0000000020420000C04118
:102C2000000078429A999999000030429999F13FB1
:102C30000000B041000090425A492D4F2057617466
:102C40006368000000004842562E32342E31312E87
:102C50003100000008B50121042001F0B7FB01217B
:102C6000102001F0B3FB28208DF8030003208DF81D
:102C70000200ADF8000069460548FFF775FC4FF407
:102C80000050ADF8000069460248FFF76DFC08BD32
:102C9000000801400010014010B5012001F0CCFAFD
:102CA0001C481D490078097840EA012081B20820BB
:102CB000FEF734FD1948007802031948017843787B
:102CC00080781943014342EA01201649097840EA15
:102CD000011081B20C20FEF721FD012001F0ACFAB9
:102CE0001148124900780978000240EA01111048A1
:102CF000007801431020FEF711FD0E480068010C1A
:102D000084B21820FEF70AFD2146BDE810401C20C1
:102D1000FEF704BDAE0000207A0000205300002022
:102D20003F000020C800002079000020C4000020DF
:102D3000780000209000002070B50546432000F088
:102D4000C2F90446442000F0BEF940EA042028807D
:102D500070BD7CB514460D4606466B4606224321DF
:102D6000682000F0CDF900280BD1BDF8001049BA59
:102D70003180BDF8021049BA2980BDF8041049BA63
:102D800021807CBD38B5124C0025C4F8A451012027
:102D900004F5D07405F038F94FF48070ADF80000F8
:102DA00010208DF8030003208DF8020069460948C1
:102DB000FFF7DAFB2560012005F026F901206060AD
:102DC00005F022F96560BDE83840012005F01CB926
:102DD00000802142000C014008B50121082001F0CB
:102DE000F5FA10208DF803004FF44070ADF80000A4
:102DF00003208DF8020069460448FFF7B5FB04483C
:102E00000121C0F8A411C0F8A01108BD000C0140B8
:102E100000802142F8B5134C0026C4F8A4610120BB
:102E200004F5D07405F0F0F84FF48070ADF80000B0
:102E300010208DF8030003208DF8020069460A482F
:102E4000FFF792FB01252560284605F0DDF8656057
:102E5000012005F0D9F86660BDE8F840012005F0D2
:102E6000D3B8000000802142000C01402DE9F84356
:102E700081464FF48070ADF8000048208DF80300C3
:102E8000002469461348FFF76FFB0025124E2F46BA
:102E90004FF00108C6F8A471012005F0B5F8C6F896
:102EA000A4816006040ED6F8200108B1641CE4B2C7
:102EB000032005F0A9F86D1CEDB2082DEAD3B9F195
:102EC000000F04D0FFF75EFF2046BDE8F883FFF750
:102ED000A1FFF9E7000C0140008021422DE9F843F1
:102EE00005464FF48070ADF8000010208DF8030007
:102EF00003208DF8020069461248FFF735FB124E99
:102F00000027C6F8A471012005F07EF800244FF0D8
:102F10000108E809C6F8A0016806050E032005F0BF
:102F200073F8C6F8A481012005F06EF8C6F8A47104
:102F3000012005F069F8641CE4B2082CE9D3BDE86F
:102F4000F8830000000C01400080214238B54FF4A6
:102F50008070ADF8000010208DF8030003208DF87C
:102F6000020069460D48FFF7FFFA0D4C0125C4F831
:102F7000A051284604F5D07405F046F8656001209C
:102F800005F042F800252560012005F03DF8656058
:102F9000BDE83840012005F037B80000000C0140C2
:102FA0000080214238B54FF48070ADF80000102049
:102FB0008DF8030003208DF8020069460D48FFF7E5
:102FC000D3FA0D4C0025C4F8A451012004F5D074A7
:102FD00005F01AF82560012005F016F80125656056
:102FE000284605F011F82560BDE83840012005F0BD
:102FF0000BB80000000C014000802142F8B54FF4EE
:103000008070ADF8000048208DF803000024694668
:103010001148FFF7A9FA114D0126C5F8A061304605
:1030200004F0F2FFC5F8A461012004F0EDFF07E011
:10303000641CE4B2FA2C03D9FFF7B4FF0120F8BDF9
:10304000D5F820010028F3D1C5F8A401012004F02F
:10305000DBFF0020F8BD0000000C01400080214291
:1030600010B5FFF7B9FE80216B2000F0B7F864209F
:1030700004F0AEFF09216B2000F0B0F8032000F04F
:1030800079F8002000F071F80A2000F090F8002193
:103090006A2000F0A3F8D021372000F09FF87520B7
:1030A00000F011F8682801D0012010BD01216B202B
:1030B00000F094F800216C2000F090F80A2000F055
:1030C00076F8002010BD10B50446FFF73FFFD02072
:1030D000FFF704FFFFF792FF2046FFF7FFFEFFF721
:1030E0008DFFFFF733FFD120FFF7F8FEFFF786FFD4
:1030F0000020FFF7BBFE0446FFF754FF204610BD3B
:103100002DE9F0411C4615460F460646FFF71EFF07
:103110007006000EFFF7E2FEFFF770FF20B1FFF729
:1031200041FF0120BDE8F0813846FFF7D7FEFFF7E9
:1031300065FFFFF70BFF012000EB4600C0B2FFF771
:10314000CDFEFFF75BFF08E0012D0CD00120FFF75B
:103150008DFE6D1E04F8010BEDB2002DF4D1FFF7CA
:1031600021FF0020DEE70020F1E7C006010E1C2051
:1031700000F034B8C006010E1B2000F02FB8BC28A8
:1031800001D3012110E0622801D302210CE02A289A
:1031900001D3032108E0142801D3042104E00A2804
:1031A00001D3052100E006211A2000F017B810B560
:1031B00004464FF47A70844201D9044602E0042C9C
:1031C00000D20424B0FBF4F0401EC1B2192000F07C
:1031D00005F86008BDE81040FFF7D1BF70B50C4698
:1031E0000546FFF7B3FED020FFF778FEFFF706FF96
:1031F00050B92846FFF772FEFFF700FF2046FFF7A1
:103200006DFEFFF7FBFE18B1FFF7CCFE012070BD8D
:10321000FFF7C8FE002070BDFEE710B501214FF09A
:10322000C05001F0C7F8012001F006F80420FEF7B5
:103230006DFA4AF2A554A04220D0012001F034F9E1
:10324000412001F019F90028FAD04FF4807001F004
:1032500041F9012001F038F901F086F901F07CF91B
:1032600047F6FF7001F068F901F076F900F032F8E6
:103270002146BDE810400420FEF750BA01F074F971
:10328000BDE8104001F068B900B58DB001F03AF921
:1032900000F5E1400B900BA8FDF75EFB01462C22E8
:1032A0006846FCF7A7FF0A48059901F26C71018096
:1032B0000499491C4180039981800299C180019938
:1032C000018100994181069981810DB000BD000006
:1032D0002C0000200E4800B501888BB0A1F26C7163
:1032E00005914188491E049181880391C18802910A
:1032F00001890191408900906846FCF727FFA0F5FD
:10330000E14001F009F901F027F90BB000BD000020
:103310002C0000207047000030B50F23C2780178E0
:103320000125F2B1144A126801F1E02102F4E062D1
:10333000C2F5E062120AC2F10404D3404278A2400E
:1033400084781C401443220181F80024007800F0A6
:103350001F018D404009800000F1E020C0F80051BD
:1033600030BD01F01F0085404809800000F1E020D9
:10337000C0F8805130BD00000CED00E00249084368
:1033800002490860704700000000FA050CED00E0FB
:1033900010B50021074C0A46002004EBC1131A5453
:1033A000401CC0B28028FAD3491CC9B20829F3D303
:1033B00010BD0000A2070020F0B57F2828D83F29C3
:1033C00026D88418802C02D9C0F18002D2B2CC1841
:1033D000402C02D9C1F14003DBB20E4E4FF0010E7A
:1033E000871801EB030C11E001F007020EFA02F559
:1033F000CA08044606EBC21204E0135DAB43135542
:10340000641CE4B2A742F8D8491CC9B28C45EBD879
:10341000F0BD0000A20700202DE9F04F1E464FF03E
:1034200000091546C846B14211D1A84202DD024644
:103430002846154604464EB205E0314660B200F01B
:1034400063F8641C24B2AC42F7DDBDE8F08FA842FB
:103450000FD1B14201DD0E4619460C4645B205E0DA
:1034600061B2284600F050F8641C24B2B442F7DD83
:10347000EBE704DD024628460E4615461946B142E2
:1034800003DD494276424FF00109721A2B1A9A4223
:1034900007DD0246084611462A46354616464FF0D5
:1034A0000108721A2B1AD41A4FEA440A4FEA420B47
:1034B000C3EB420604460F461AE0604241B203E005
:1034C000784241B203E061B278B201E079B260B211
:1034D00000F01AF8AC42B8DA641C24B2002E02DA0A
:1034E00006EB0B0003E07F1C3FB206EB0A0006B2BE
:1034F000B9F1000F03D0B8F1000FE1D0DDE7B8F16A
:10350000000FE3D0DFE7000010B57F2815DC3F296E
:1035100013DC002811DB00290FDBCA1701EB527204
:10352000D410064B22F0070203EBC41318448A1A86
:103530000378012191400B43037010BDA2070020C6
:103540002DE9F047804608988946CE1808EB020717
:1035500010B108F0FF0535E0701E08F0FF044FFAC7
:1035600080FA0AE060B249460546FFF7CDFF5146B2
:103570002846FFF7C9FF641CE4B2A742F2DC7F1EB5
:1035800009F0FF047DB20AE061B20F464046FFF742
:10359000BBFF28463946FFF7B7FF641CE4B2A642DA
:1035A000F2DCBDE8F08709F0FF044FFA85F805E08A
:1035B00061B24046FFF7A8FF641CE4B2A642F7DC04
:1035C0006D1CEDB2AF42EEDCEBE7000038B54FF416
:1035D0007A7004F0FDFC0121042000F0F7FE0121C7
:1035E000082000F0F3FE10208DF8030003208DF872
:1035F00002004FF480501A4CADF800006946204696
:10360000FEF7B2FF6114ADF8001069462046FEF7E0
:10361000ABFF4FF48041ADF8001069462046FEF73D
:10362000A3FF4FF40041ADF8001069462046FEF7B5
:103630009BFFA015ADF8000069460A48FEF794FF0D
:10364000002000F07DFD012000F082FD012000F04F
:103650008FFD012000F084FD012000F069FD38BDE0
:10366000000C0140000801407F2801D83F2901D902
:1036700000207047064BCA0803EBC212105C01F031
:103680000702012191400840F3D00120704700005B
:10369000A207002010B5FFF799FFAE2000F070FDE3
:1036A000D52000F06DFDFE2000F06AFDA82000F09E
:1036B00067FD3F2000F064FDD32000F061FD002095
:1036C00000F05EFD402000F05BFDA12000F058FD01
:1036D000C82000F055FDDA2000F052FD122000F065
:1036E0004FFD812000F04CFDCF2000F049FDD92096
:1036F00000F046FDF22000F043FDDB2000F040FD2D
:10370000302000F03DFDA42000F03AFDA62000F09E
:1037100037FDAD2000F034FD8B2000F031FDAF20EF
:1037200000F02EFDFFF734FEBDE8104000F0BABCFB
:103730002DE9F8431646884681460024114D06E0DF
:1037400038463146FCF768FD60B1641CE4B204EB16
:10375000C40000EB4000284407460BA1FCF75CFDC9
:103760000028EDD104EBC40000EB40002844C01C4D
:103770000C2300901A464146484600F063FBBDE822
:10378000F8830000E6AD00080000000003460120B9
:1037900000E05843491EFCD2704710B538B1AD2047
:1037A00000F0EEFC8B2000F0EBFCAF2006E0AE203A
:1037B00000F0E6FCAD2000F0E3FC8A20BDE81040FC
:1037C00000F0DEBC10B5084B0021002003EBC11255
:1037D000145CE4431454401CC0B28028F8D3491C44
:1037E000C9B20829F1D310BDA2070020F0B57F2887
:1037F00028D83F2926D88418802C02D9C0F180020D
:10380000D2B2CC18402C02D9C1F14003DBB20E4E2B
:103810004FF0010E871801EB030C11E001F00702D5
:103820000EFA02F5CA08044606EBC21204E0135D64
:103830006B401355641CE4B2A742F8D8491CC9B2C6
:103840008C45EBD8F0BD0000A20700202DE9F04721
:103850001F4614460546961E00F101098846F2B23D
:1038600009F0FF000123FFF7C1FFB81EC3B208F142
:103870000100C1B222462846FFF7B8FF08EB070057
:10388000401EC1B2F2B209F0FF00BDE8F0470123CB
:10389000FFF7ACBF70B500240546802626FA04F079
:1038A000284000D0012000F053FC012000F048FC2B
:1038B000002000F045FC641CE4B2082CEED370BD7F
:1038C00010B5891CCCB240F0B00000F059FC1020BB
:1038D00040EA141000F054FC04F00F00BDE8104062
:1038E00000F04EBC2DE9F0411D46164688460746BD
:1038F000002408E004FB057040B22B46414600F06E
:103900004FF8641CE4B2325D002AF3D1BDE8F081C7
:103910002DE9FF4F1C4690468A460098FFF74CFD64
:10392000641EE017002104EB50700122DFF86CE008
:103930000AF0070702EBE00B2BE0002025E0009ADD
:1039400002447F2A23D801EBDA04072C23D80D9EEA
:1039500001FB08F906440EEBC41319F8065013F8DE
:1039600002C0BD404CEA050C641C03F802C0072CE1
:1039700009D81A4419F8064012F8803FC7F1080523
:10398000EC4023431370401CC0B24045D7D3491CC0
:10399000C9B28B45D1DCBDE8FF8F0000A207002033
:1039A00008B5082B0DD0062B0AD10A4B02EB4202B8
:1039B00003EB4202C03A00920823062200F042FACA
:1039C00008BD054B03EB0212A2F500721023009212
:1039D0000822F3E7ACAB0008BCA500082DE9F04FC6
:1039E0001C4690468A4683467F2841DCBAF13F0F49
:1039F0003ED80BF0FF005146FFF7DEFC641EE017D7
:103A0000002104EB507001220AF0070702EBE00EE0
:103A10002CE0002026E00BEB00027F2A24DC01EBE7
:103A2000DA04072C24D8099E01FB08F90644114B3F
:103A300019F8065003EBC413BD4013F802C0641C10
:103A40004CEA050C03F802C0072C09D81A4419F8EF
:103A5000064012F8803FC7F10805EC40234313707D
:103A6000401CC0B24045D6D3491CC9B28E45D0DCFB
:103A7000BDE8F08FA20700202DE9F04F1C469046CC
:103A80008A4683467F2840D8BAF13F0F3DD8514639
:103A90005846FFF791FC641EE017002104EB5070BC
:103AA00001220AF0070702EBE00E2CE0002026E0DE
:103AB0000BEB00027F2A24D801EBDA04072C24D870
:103AC000099E01FB08F90644114B19F8065003EB57
:103AD000C413BD4013F802C0641C4CEA050C03F883
:103AE00002C0072C09D81A4419F8064012F8803F82
:103AF000C7F10805EC4023431370401CC0B2404599
:103B0000D6D3491CC9B28E45D0DCBDE8F08F000089
:103B1000A20700202DE9FF4F1C4690468A460098D8
:103B2000FFF74AFC641EE017002104EB50700122ED
:103B3000DFF86CE00AF0070702EBE00B2BE0002057
:103B400025E0009A02447F2A23D801EBDA04072CEF
:103B500023D80D9E01FB08F906440EEBC41319F897
:103B6000065013F802C0BD404CEA050C641C03F873
:103B700002C0072C09D81A4419F8064012F8803FF1
:103B8000C7F10805EC4023431370401CC0B2404508
:103B9000D7D3491CC9B28B45D1DCBDE8FF8F0000EB
:103BA000A20700202DE9F04F1C4690468A46834626
:103BB0007F2840D8BAF13F0F3DD851465846FFF70D
:103BC000FBFB641EE017002104EB507001220AF099
:103BD000070702EBE00E2CE0002026E00BEB0002D2
:103BE0007F2A24D801EBDA04072C24D8099E01FB94
:103BF00008F90644114B19F8065003EBC413BD40F5
:103C000013F802C0641C4CEA050C03F802C0072C30
:103C100009D81A4419F8064012F8803FC7F1080580
:103C2000EC4023431370401CC0B24045D6D3491C1E
:103C3000C9B28E45D0DCBDE8F08F0000A20700209D
:103C40002DE9F84F14461D4680464FFA80FA4EB2D1
:103C50000022134620462946DDF828900C9FFCF7E9
:103C600001FE3B4605D82B2231465046FFF798FE11
:103C700006E02D2231465046FFF792FE85F00045C2
:103C800020462946FCF7AAFD8346FCF74EFD224656
:103C90002B46FCF747FC04460D460A200B99FFF71C
:103CA00075FD8246FCF741FD22462B46FCF73DFCA4
:103CB00004F0F8FEFCF792FDB0FBFAF1044601EBCC
:103CC0000B0208EB070040B24B463146009700F06C
:103CD00073F909F1010000FB078040B23B462E2238
:103CE0003146FFF75DFE09F1020000FB078040B29C
:103CF0000097224631460B9B00F05EF9BDE8F88F35
:103D00002DE9F04F1C4690468A4683467F2840D8CE
:103D1000BAF13F0F3DD851465846FFF74DFB641EA0
:103D2000E017002104EB507001220AF0070702EBB4
:103D3000E00E2CE0002026E00BEB00027F2A24D8C6
:103D400001EBDA04072C24D8099E01FB08F906448C
:103D5000114B19F8065003EBC413BD4013F802C011
:103D6000641C4CEA050C03F802C0072C09D81A445D
:103D700019F8064012F8803FC7F10805EC402343CC
:103D80001370401CC0B24045D6D3491CC9B28E4501
:103D9000D0DCBDE8F08F0000A20700202DE9FF4F26
:103DA0001F46DDE90D6491460D460098FFF704FBC0
:103DB0007F1EF817002107EB50700122DFF880B05A
:103DC00005F0070C02EBE00E36E00F982044C4B279
:103DD00000202DE0009A02447F2A2BD801EBD50366
:103DE000072B2BD84FEAD50807190BEBC81AF75D3C
:103DF0001AF8028007FA0CF748EA07085F1C0AF86D
:103E00000280072F12D81F190BEBC713224401FBA6
:103E100009F706EB00081A4417F8087012F8803FFB
:103E2000CCF1080827FA08F73B431370401CC0B2D6
:103E30004845CFD3491CC9B28E45C6DCBDE8FF8FCB
:103E4000A20700202DE9FF4F154606462844984654
:103E50000C46002875DD7F2E73DC4FF000094F46BD
:103E60004FF0010A002C18DA08EB0400CDF80C80A2
:103E700000F0FF08C843C11700EB51710AEBE102E3
:103E800021F00701401A401CC7B200244FFA88F005
:103E900002F0FF09012854DB01E03F2C51DCE1B2C4
:103EA000F0B243462A46FFF787FAA8F10100C1178E
:103EB00000EB51710AEBE100C0B20021029074E006
:103EC0004FF0010A00206CE0BAF1000F05D0002E7F
:103ED00003DA801BC0B24FF0000A33187F2B62DC7C
:103EE000E21704EB527E01EBEE02072A60DCDFF8FA
:103EF000C4C0B9F1000F25D00CEBC21202EB030EC7
:103F000001EB090BDDF834C0ABF101026A438444D4
:103F10009EF8003012F80C20FA4013438EF800305F
:103F2000DDF80C80B8EBCB0F39D90BFB05F212F89A
:103F30000C20C7F1080C02FA0CF213438EF8003083
:103F40002DE035E00CEBC21C0CEB030BDDF834C0AC
:103F50009BF8008001FB05F384440093CDF804C076
:103F600013F80C302EF0070CA4EB0C0E03FA0EF332
:103F700048EA0308521C5B468BF80080072A0EDCD7
:103F800003F18008DDE9003C9BF8802013F80C3039
:103F9000CEF1080C23FA0CF31A4388F80020401CD9
:103FA000C0B2A84290D3491CC9B20298814287D3BB
:103FB000BDE8FF8FA20700202DE9F0471D46089FAE
:103FC00090468A4606467F281DDCBAF1400F1ADC6F
:103FD00000244FF00A0914E0291B0A20491EFFF7AC
:103FE000D5FBB8FBF0F1B1FBF9F209FB121204FBAF
:103FF000076040B23B4651463032FFF7D1FC641CAB
:10400000E4B2AC42E8D3BDE8F0872DE9F8430025DF
:104010001E4691460F4680462C463CE00A2A23D095
:10402000611C01FB0680802805DD082E25D00820B4
:10403000384447B200247E2A21D90020009019F884
:1040400005006D1CEDB28DF8000019F805008DF823
:10405000010004FB068040B233466A463946FFF74A
:1040600067FB641CE4B212E0082E04D00820384438
:1040700047B2FF240BE01020F9E71020D8E704FB3B
:104080000680391D40B2334649B2FFF789FC6D1CEA
:10409000641CEDB2E4B219F80520002ABED1BDE8D7
:1040A000F883000070B5084D002400212046FFF77A
:1040B00007FC05EBC410802100F072F8641CE4B228
:1040C000082CF2D370BD0000A20700202DE9F041BA
:1040D000164605467F2827D83F2925D8A8198028C5
:1040E00002D9C5F18000C6B2C818402802D9C1F172
:1040F0004000C3B2C818CC08401EC11700EB517075
:104100000121DFF8288001EBE0070BE0294620467B
:10411000FFF7D6FB08EBC4102844314600F040F806
:10412000641CE4B2A742F1DCBDE8F081A2070020E4
:1041300002464FF480510148FEF79BBA000C014043
:1041400002464FF480710148FEF793BA000801401F
:1041500002464FF400410148FEF78BBA000C0140C3
:1041600002464FF400510148FEF783BA000C0140AB
:1041700002464FF480410148FEF77BBA000C014033
:1041800010B504460020FFF7D3FF0020FFF7E8FF3B
:104190002046FFF77FFBBDE810400120FFF7C8BFB6
:1041A00070B506460D460020FFF7C2FF0120FFF75D
:1041B000D7FF002404E0305DFFF76CFB641CE4B221
:1041C000AC42F8D3BDE870400120FFF7B1BF00005A
:1041D00010B5184C78B12078A1786278431A9342D0
:1041E00000DB501860708120FFF7CAFF6078BDE8DF
:1041F0001040FFF7C5BF6078A17888420CD200203C
:1042000060708120FFF7BCFF6078FFF7B9FFBDE861
:104210001040102003F0DCBE8120FFF7B1FF607872
:10422000FFF7AEFF102003F0D3FE6078A178401AAC
:104230006070E0E7AE0000200149086270470000AE
:1042400000000E420748016841F004010160016866
:1042500041F0020101600448016841F0040101607D
:1042600030BF70470070004010ED00E00A4B1A6844
:1042700022F0030202431A600848026842F0040276
:104280000260012905D020BF016821F0040101600E
:10429000704730BFF8E700000070004010ED00E00C
:1042A0000149C1F8A000704700000E4270470000AD
:1042B00010B5064ACB0802EBC31201F00704135CE9
:1042C0000121A1408B43135410BD0000AE0100201A
:1042D00010B5064ACB0802EBC31201F00704135CC9
:1042E0000121A1400B43135410BD0000AE0100207A
:1042F0002DE9F0410122204FD60331463846FEF722
:10430000B8F91E4900200870FFF742F8FFF7CAFE0F
:104310000020FFF742FA1A4D1A4C2878B0B101215B
:104320003820FEF75BFF11E02079022802D0042834
:1043300005D009E001210020FFF798FF04E00120EB
:10434000FFF7AEFFFFF77EFFFDF7F0F9E0780028FA
:10435000EAD101F0CFFA287818B100213820FEF711
:104360003DFF0120FFF719FA31463846BDE8F0411C
:104370000022FEF77EB9000000080140A8000020DE
:10438000780000203F000020034A516821F440419A
:10439000014351607047000000100240044A0029A8
:1043A000516901D0014300E0814351617047000031
:1043B00000100240044A0029D16901D0014300E005
:1043C0008143D1617047000000100240044A002977
:1043D000916901D0014300E0814391617047000081
:1043E0000010024030B5204A5168204B11F00C01FA
:1043F00003D0042901D0082901D0036012E05168DC
:10440000536801F470114FF0020413F4803F04EB81
:10441000914102D053689B0301D5154B00E0134B2B
:104420005943016051680F2303EA1111114B5C5C81
:104430000168E14041605468072505EA14241C5DC9
:1044400021FA04F48460546805EAD4241B5DD94041
:10445000C1605268032303EA9232064B1B1F9A5C29
:10446000B1FBF2F1016130BD0010024000127A0090
:1044700000093D0018000020034600205909094AA0
:1044800001290AD002290AD0516A03F01F02012330
:1044900093400B4200D0012070471168F5E7116A84
:1044A000F3E70000001002400649002281F82020B6
:1044B00081F82020012802D0042802D1052081F8AB
:1044C000200070470010024001490860704700005A
:1044D0003C04424202490A6A02430A6270470000F1
:1044E000001002400248018841F01001018070472D
:1044F000042800400248018821F010010180704723
:1045000004280040034800880249091F098840EA3E
:10451000014070471C28004000B50246FFF7E2FF4B
:104520000449100C0880081D02805DF804EBFFF7B9
:10453000E1BF00001828004000B50246FFF7D2FF97
:104540000449C2F303400880081D02805DF804EBB3
:10455000FFF7D0BF08280040024801888906FCD533
:1045600070470000042800400448018821F0080139
:10457000018001880907FCD570470000042800402D
:1045800038B51848184C0078042814D0FEF768FD98
:10459000607846214843A0800120FFF74DFE10209F
:1045A000FDF7B4F820F00F012078BDE83840014352
:1045B0001020FDF7B3B800250E2360221F212846E6
:1045C0000095FEF7BDFF062308A220210120FFF77A
:1045D0001CFDFFF767FD2570BDE838404FF4FA7009
:1045E00003F0F6BC4300002078000020C7EBB9D8E8
:1045F000B1D5B3ACBCB6CAA1B5E7000010B50A4C42
:10460000462160784843A0800120FFF715FE6478BA
:104610001020FDF77BF864F31F200146BDE8104031
:104620001020FDF77BB800007800002070B5002452
:1046300000F028F800F02CF8082000F000F900F055
:104640001BF8082000F0FBF80A4D01E0641CA4B23E
:1046500020212846FEF702F808B1642CF6D3642C1A
:1046600006D000F00FF8082000F0E9F8012070BD36
:10467000002070BD0008014010210148FDF7F7BF80
:104680000008014010210148FDF7EFBF000801407C
:1046900008B504208DF803002020ADF800000320A9
:1046A0008DF8020069460248FDF75EFF08BD000074
:1046B0000008014038B514208DF803002020ADF823
:1046C00000000320054C8DF8020069462046FDF7E6
:1046D0004BFF20212046FDF7CAFF38BD00080140EE
:1046E00038B514208DF803002020ADF80000032019
:1046F000054C8DF8020069462046FDF735FF202164
:104700002046FDF7B2FF38BD000801407FB501210A
:104710000846FFF75BFE01210420FFF757FE012149
:104720000820FFF753FE28208DF80B0003208DF89A
:104730000A004025ADF8085002A92248FDF714FFF1
:1047400048208DF80B008026ADF8086002A91E48AD
:10475000FDF70AFF00210846FDF7F2FE06210020C2
:10476000FDF7EEFE07210120FDF7EAFE01248DF89A
:10477000064000208DF8040008208DF805006846EA
:104780000094FDF787FE68460095FDF783FE0C2038
:104790008DF8050068460096FDF77CFE8DF80F4009
:1047A0008DF80D408DF80E4006208DF80C0003A802
:1047B000FEF7B2FD17208DF80C0003A8FEF7ACFD44
:1047C0007FBD000000080140000C0140704710B59B
:1047D000FFF758FF082000F032F8FFF781FF0820AC
:1047E00000F02DF8FFF748FF082000F028F8FFF749
:1047F00049FF082000F023F8FFF74AFFBDE810400A
:10480000082000F01CB810B5FFF73CFF082000F0AE
:1048100016F8FFF74FFF082000F011F8FFF72CFF04
:10482000082000F00CF8FFF72DFF082000F007F833
:10483000FFF756FFBDE810400820AFF3008000B539
:10484000801E020004D00120FDF7ACFC521EFAD1FC
:1048500000BD000030B5012187B04804FFF7AAFD74
:1048600001210420FFF7B2FD18208DF81300042465
:10487000ADF8104003201E4D8DF8120004A9284603
:10488000FDF772FE8DF813400821ADF8101004A951
:104890002846FDF769FE4FF41650002400900C20C6
:1048A000ADF80A00134DADF80640ADF80C40ADF878
:1048B0000840ADF804406946284602F09FF90122FD
:1048C00040F22551284602F081F926208DF8140087
:1048D00001208DF817008DF815408DF8164005A8B9
:1048E000FEF71AFD0121284602F040F907B030BD5D
:1048F000000801400044004030B5012187B0880421
:10490000FFF758FD01210820FFF760FD18208DF802
:1049100013004FF48060ADF81000214D03248DF892
:10492000124004A92846FDF71FFE48218DF81310F8
:10493000E814ADF810008DF8124004A92846FDF7E0
:1049400013FE4FF41650009000200C21ADF80A1011
:10495000ADF80600134CADF80C00ADF80800ADF84A
:1049600004006946204602F049F9012240F225512F
:10497000204602F02BF927218DF8141001218DF823
:1049800017108DF8151002208DF8160005A8FEF7F7
:10499000C3FC0121204602F0E9F807B030BD000059
:1049A000000C01400048004010B5064C014620466E
:1049B00002F07EF98021204602F0E2F80028F9D0CA
:1049C00010BD0000004800400CB5002226480092AF
:1049D0000192016841F4803101604FF4A0630168E5
:1049E00001F4003101910099491C0091019911B91C
:1049F00000999942F3D10168890333D501210191CE
:104A00001A490A6842F010020A600A6822F003029A
:104A10000A600A6842F002020A6041684160416827
:104A20004160416841F480614160416821F47C113A
:104A30004160416841F4E8114160016841F08071D2
:104A4000016001688901FCD5416821F003014160E2
:104A5000416841F0020141604168C1F381010229CE
:104A6000FAD10CBD01920CBD0010024000200240A2
:104A700038B50D4CE069012807D10C48009020237F
:104A80001D221A211020FFF78DF8E069801C07D144
:104A90000748009020231D221A211020FFF782F8DA
:104AA000E069C043E06138BDE8000020D4C90008D7
:104AB00054C9000838B50F4C94F90500002801DCF2
:104AC000802060710C48082300901A22194694F93E
:104AD0000500FEF783FF94F90500242808DC01B0E7
:104AE00008230622BDE8304000210846FEF764BCDA
:104AF00038BD0000E8000020AACF000838B5102318
:104B00000F222A211846FEF757FC0C4CE0690128B9
:104B100007D10B4800900A23162230211020FFF7FE
:104B200041F8E069801C07D1064800900A2316224C
:104B300030211020FFF736F838BD0000E8000020D3
:104B400054CA000880CA000838B50D4CE069012835
:104B500007D10C48102300900F222A211846FFF796
:104B600021F8E069801C07D10748102300900F222C
:104B70002A211846FFF716F8E069C043E06138BD06
:104B8000E800002036C9000818C9000810B5FDF774
:104B90000DFC04F073FD184CFEF7FAFBE068642886
:104BA00002D92069401C206100F040FCFFF782FF21
:104BB00000F026F800F060FCFFF774FA0120FFF720
:104BC00007FBE07A38B10020E0720146BDE81040F2
:104BD0000A4801F032B9022003F0FAF94020FFF749
:104BE000CFFAA120FFF7CCFAC820FFF7C9FA2F208F
:104BF00003F0EEF9D0E70000E8000020002C0140AF
:104C00002DE9FC5FFA4D64212869B0FBF1F201FB4C
:104C1000120119B9322801D90120E86295F903007F
:104C2000C0F180002871E871686AC0436862FDF7CE
:104C300069FC0024022802D0A86918B163E00120B1
:104C4000A86160E0E878A872802801D8286A0AE0A4
:104C5000AC72EC70FBF768FAC11700EB917121F0B0
:104C60000301401A2862022808D0AC6348B1012829
:104C70000DD0022814D0032843D12CE00121A963D0
:104C8000F4E7DC48009011232879082204E0DA4890
:104C90000090287910230F222A21FEF739FE30E0F8
:104CA00095F90300C0F1800040B22872696A0129B9
:104CB00007D1D2490091C0B2102316221D21FEF760
:104CC000DBFE686A801C1CD1CD48009010231622A0
:104CD000287A1D2113E0686A012807D1C74800908F
:104CE000E879102316222A21FEF7C6FE686A801C86
:104CF00007D1C3480090E879102316222A21FEF735
:104D0000BBFEFFF721FFFDF7FDFB012862D1A8697B
:104D100001285FD010230F222A211846FEF74CFBF2
:104D2000E878A872802801D8286A09E0AC72FBF7FD
:104D3000FBF9C11700EB917121F00301401A2862C1
:104D400030B101280AD0022811D0032840D129E02F
:104D5000A848009011232879082204E0A648009072
:104D6000287910230F222A21FEF7D2FD30E095F991
:104D70000300C0F1800040B22872696A012907D19E
:104D80009E490091C0B2102316221D21FEF774FE29
:104D9000686A801C1CD19A48009010231622287A39
:104DA0001D2113E0686A012807D194480090E87932
:104DB000102316222A21FEF75FFE686A801C07D1A5
:104DC0008F480090E879102316222A21FEF754FE1E
:104DD000FFF794FE86488B4D8B4E006ADFF82C92CD
:104DE000DFF82CA2DFF82CB2022854D0804FB8692B
:104DF00001286FD0B86B01286DD0386B00286AD1BC
:104E000097F904000838082804D997F907000838EA
:104E1000082860D8787A072813D2DFE800F0120457
:104E20000A20262C3200CDE9005020232422102114
:104E300004E0CDE900602023242210212E20FEF77B
:104E40005FFF787A401C7872192003F0C1F8FDF7F3
:104E500059FBE8B13C61386A02281CD04EE0CDE92C
:104E60000090202324221021E8E7CDE900A0202390
:104E700024221021E2E7CDE900B0202324221021D2
:104E8000DCE76549CDE90010202324221021D5E775
:104E9000FFF708F9BEE7564FB86901284FD0386BC5
:104EA0000028ACD197F9080008380828B1D8FDF7D8
:104EB00029FB012822D0787A072815D2DFE800F0F4
:104EC00014040C23292F3500CDE90050202324227F
:104ED000102106E033E0ABE1CDE90060202324227D
:104EE00010212E20FEF70CFF787A401C78721920D2
:104EF00003F06EF8FDF706FBF0B13C613C488069B9
:104F000001281CD0E2E1CDE90090202324221021C9
:104F1000E7E7CDE900A0202324221021E1E7CDE935
:104F200000B0202324221021DBE73B49CDE900100B
:104F3000202324221021D4E7FFF7B4F8BBE7DFF8E1
:104F4000B08098F9060020286DDB98F904004746E8
:104F50000B38132867D2386B78BB062000900523E6
:104F6000022101203A69FFF727F800210A232022B5
:104F700008460094FEF7E4FA787A072813D2DFE8AF
:104F800000F012040A1D23292F00CDE90050202330
:104F90002422102104E0CDE90060202324221021E6
:104FA0002E20FEF7ADFE787A401C7872192003F0AF
:104FB0000FF8FDF7A7FAD0B13C6134E0CDE90090DD
:104FC000202324221021EBE7CDE900A02023242276
:104FD0001021E5E7CDE900B0202324221021DFE7EE
:104FE0000D49CDE90010202324221021D8E715E037
:104FF000E80000202CCB0008ACCB0008ECCB00086C
:1050000018CC000844CC0008D5CC000866CD0008B8
:10501000F7CD000888CE000819CF0008FFF742F846
:10502000B869012899D0FA4FD8F814003856C0F161
:105030002A0088F8060098F8030088F80A009028EB
:105040000DD988F8034088F80A40FBF76DF8C117BE
:1050500000EB917121F00301411AC8F82010D8F833
:10506000200040B9EB48009098F804001123082272
:105070002A21FEF74DFCD8F82000012808D1E64887
:10508000009098F8040010230F222A21FEF740FC1C
:10509000D8F8200002281FD198F90300C0F1800041
:1050A00040B288F80800D8F82410012907D1DB495C
:1050B0000091C0B2102316221D21FEF7DDFCD8F8A6
:1050C0002410891C08D1D649009198F808001023B3
:1050D00016221D21FEF7D0FCD8F82000032819D194
:1050E000D8F82400012808D1CC48009098F807008F
:1050F000102316222A21FEF7BFFCD8F82410891CA1
:1051000008D1C749009198F80700102316222A21D8
:10511000FEF7B2FCD8F81410C2480C2946D2DFE8DA
:1051200001F045060A161A1E22262A2E3236009053
:1051300097F9000002E0009097F901001023C0F1F8
:105140002A00C1B20E221846FEF7E4FC2EE00090C1
:1051500097F90200F2E7009097F90300EEE700905C
:1051600097F90400EAE7009097F90500E6E7009058
:1051700097F90600E2E7009097F90700DEE7009054
:1051800097F90800DAE7009097F90900D6E7009050
:1051900097F90A001023C0F12A00C1B20E22184666
:1051A000FEF7B8FCC8F81440C8F8184098494039D0
:1051B0004869401C4861096A022956D03856DFF810
:1051C0005082C0F12A00A8F1400828287EDBD8F8D8
:1051D000300068BB98F907000838082876D898F896
:1051E0000900072813D2DFE800F012040A242A304D
:1051F0003600CDE9005020232422102104E0CDE91F
:1052000000602023242210212E20FEF779FD98F83B
:105210000900401C88F80900192002F0D9FEFDF7AA
:1052200071F9F8B1C8F81040D8F8200002281CD055
:105230004CE0CDE90090202324221021E4E7CDE9C1
:1052400000A0202324221021DEE7CDE900B0202396
:1052500024221021D8E77449CDE90010202324220C
:105260001021D1E7FEF71EFFB9E7694F403FB8694B
:1052700001282BD0386B48BB97F90800083808285C
:1052800024D8FDF73FF9012820D0787A072813D2D7
:10529000DFE800F012040A22282E3400CDE9005085
:1052A00020232422102104E0CDE9006020232422C1
:1052B00010212E20FEF724FD787A401C78721920E8
:1052C00002F086FEFDF71EF9F8B13C61504D403DFD
:1052D000E86A01281CD094E0CDE900902023242224
:1052E0001021E6E7CDE900A0202324221021E0E7E9
:1052F000CDE900B0202324221021DAE74A49CDE984
:105300000010202324221021D3E7FEF7CBFEBCE7B8
:10531000FDF7F8F8032874D1A86101202863686BB1
:10532000401E6863E878A872802801D8286A09E0DE
:10533000AC72FAF7F9FEC11700EB917121F003018D
:10534000401A286230B101280AD0022811D003285F
:1053500040D129E02F48009011232879082204E049
:105360002D480090287910230F222A21FEF7D0FA29
:1053700030E095F90300C0F1800040B22872696AFC
:10538000012907D125490091C0B2102316221D2101
:10539000FEF772FB686A801C1CD121480090102324
:1053A0001622287A1D2113E0686A012807D11B48BC
:1053B0000090E879102316222A21FEF75DFB686A27
:1053C000801C07D116480090E879102316222A2164
:1053D000FEF752FB686B28B9EC622020EC63C5E94C
:1053E0000C40AC6195F904001038132807D8286BDD
:1053F00028B120231D221A211020FDF7DDFFFFF721
:1054000037FBE87869780844E870BDE8FC9F000045
:10541000280100202CCB0008ACCB0008ECCB000806
:1054200018CC0008ACCA000819CF00083EB5062009
:105430000F4C00900523022101202269FEF7BCFDDC
:1054400000200A23202201460090FEF779F8E07838
:105450002178084ACDE900200291082380223821D2
:105460000020FEF79BFCE07821780844E0703EBD08
:10547000E800002018C5000838B50620104C009040
:105480000523022101202269FEF796FD00200A2350
:10549000202201460090FEF753F8A06A401C01D17B
:1054A000FEF790F920696421B0FBF1F201FB1201D3
:1054B000002904D1322802D9A06A4042A06238BD36
:1054C000E800002038B504464020FEF759FEA12030
:1054D000FEF756FEC820FEF753FEFDF759FFFEF714
:1054E00071F9DCB1012C2AD0022C39D0032C4DD11A
:1054F00000F06EF8FDF74CFF25482D2300901A466A
:1055000000212920FEF79EFC062322A2332122201F
:10551000FEF77BFDBDE8384000F086B800F058F893
:10552000FDF736FF1E482D2300901A460021292042
:10553000FEF788FC062333211AA22820E8E700F0B2
:105540009FF8FDF725FF1A482D2300901A460021E9
:105550002920FEF777FC0623332116A228200FE02E
:1055600000F08EF8FDF714FF15482D2300901A4621
:1055700000212920FEF766FC062312A233212220F7
:10558000FEF743FDBDE8384000F0A6B838BD000086
:105590000AC40008D6A7B8B6B1A6D6A7B8B6000008
:1055A000E0C00008CEA2D0C5CAD5BFEE0000000002
:1055B000FCC20008CEA2D0C5D6A7B8B60000000035
:1055C000EEC10008D6A7B8B6B1A6CAD5BFEE000096
:1055D00010B500244023012200212046FEF776FD6D
:1055E0000A2002F0F5FC641CE4B2142CF2D314245B
:1055F0004023012200212046FEF768FD072002F02B
:10560000E7FC641CE4B21E2CF2D31E2440230122CA
:1056100000212046FEF75AFD012002F0D9FC641C4F
:10562000E4B2802CF2D310BD10B500244023012237
:1056300000212046FEF74AFD012002F0C9FC641C4F
:10564000E4B2642CF2D364244023012200212046DA
:10565000FEF73CFD072002F0BBFC641CE4B2782C92
:10566000F2D378244023012200212046FEF72EFDAC
:105670000A2002F0ADFC641CE4B2802CF2D310BD11
:1056800010B580244023012200212046FEF71EFD94
:105690000A2002F09DFC641EE4B26C2CF2D86C244B
:1056A0004023012200212046FEF710FD072002F0D2
:1056B0008FFC641EE4B2622CF2D8622440230122E3
:1056C00000212046FEF702FD012002F081FC641E4D
:1056D00014F0FF04F2D110BD10B580244023012244
:1056E00000212046FEF7F2FC012002F071FC641E4E
:1056F000E4B21C2CF2D81C244023012200212046B5
:10570000FEF7E4FC072002F063FC641EE4B2082C00
:10571000F2D808244023012200212046FEF7D6FCBF
:105720000A2002F055FC641E14F0FF04F2D110BDF3
:1057300010B5FEF7D5FF0820FFF781F8FEF79CFFB4
:105740000820FFF77CF8FEF7B5FFBDE81040082001
:10575000FFF775B82DE9F04F4FF000098BB012201C
:105760004FF0050AC8464F464E464D464C46CB467E
:105770000190FDF70DFEFEF795FC0AF16B000A9013
:105780000AF1580009900AF13F0008900AF12C0034
:1057900006900AF1130005900AF1510040B20390FF
:1057A0000198133002900198801D04900AF12500A1
:1057B00007904020FEF7E4FCA120FEF7E1FCC820A2
:1057C000FEF7DEFC0120FEF703FDBBF1010F27D140
:1057D000012002F0FDFB09F1010000F0FF09B9F121
:1057E000070F1DD308F1010000F0FF084FF000097A
:1057F000B8F10A0F14D37F1CFFB2C8460A2F0FD38B
:10580000761C0027F6B2062E0AD36D1C0026EDB2D8
:105810000A2D05D3641C0025E4B2062C00D3002415
:1058200001234A4601990A9800F008FF01234246E5
:105830000199099800F002FF002000900423022241
:1058400004990798FDF77CFE0020009004230222B3
:1058500002990798FDF774FE01233A4601990898CA
:1058600000F0ECFE012332460199069800F0E6FEB6
:1058700000200090DDE9030104230222FDF760FE11
:1058800000200090DDE9021004230222FDF758FEFB
:1058900001232A460199059800F0D0FE01232246F3
:1058A0005046019900F0CAFEFEF7FCFB03F08AF8AF
:1058B000C0B2012808D002287FF47BAF0BB00020D3
:1058C000BDE8F04FFEF784BCBBF1000F02D0002012
:1058D00083466EE70120FBE74FF0E02104280869CA
:1058E00003D020F004000861704740F00400FAE79C
:1058F000704700000F4810B5016841F001010160D8
:1059000041680D4A1140416001680C4A1140016034
:10591000016821F480210160416821F4FE014160A9
:105920004FF41F018160FFF74FF805494FF0006009
:10593000086010BD001002400000FFF8FFFFF6FEF7
:1059400008ED00E010B50120FEF776FC0820FBF71B
:10595000DDFE00F47F4104480078BDE810400143BB
:105960000820FBF7DBBE0000AE00002000B599B0B8
:10597000642204496846FAF73DFC684603F08CFA55
:1059800019B000BD9CA2000802490020087000F078
:1059900013B800005300002002490120087000F0F5
:1059A0000BB800005300002002490220087000F0EC
:1059B00003B800005300002010B50120FEF73CFCA6
:1059C000064804780C20FBF7A1FE64F31F3081B277
:1059D000BDE810400C20FBF7A1BE000053000020E2
:1059E00010B504460120FEF727FC1020FBF78EFEC1
:1059F00020F0F00040EA0411BDE810401020FBF751
:105A00008DBE000000B5ADB0B42204496846FAF777
:105A1000F1FB684603F040FA2DB000BD00A300087A
:105A200010B504460120FEF707FC0C20FBF76EFEC4
:105A300020F4706040EA04214FF2FF000143BDE80A
:105A400010400C20FBF76ABE00B599B064220449EF
:105A50006846FAF7CFFB684603F01EFA19B000BD9E
:105A600054A4000805490120064A0870044908703A
:105A700000211170044A1170FFF7D2BF43000020CB
:105A80003F000020400000204100002038B51349AD
:105A900002200024087012490C7012490870124943
:105AA0000C70FFF7BDFF11480178002915D0047074
:105AB0000E2354221F2100200094FDF741FD0623F0
:105AC0000BA220210120FEF7A0FAFEF7EBFABDE8B9
:105AD00038404FF4FA7002F07BBA38BD4300002022
